{
  "comment": "Contract call transaction",
  "context": {
    "number": "0x1",
    "difficulty": "0x0",
    "timestamp": "0x0",
    "gasLimit": "0x989680",
    "miner": "0x0000000000000000000000000000000000000000"
  },
  "genesis": {
    "alloc": {
      "0x71562b71999873db5b286df957af199ec94617f7": {
        "code": "0x",
        "nonce": "0x0",
        "balance": "0x1c6bf52634000"
      },
      "0x00000000000000000000000000000000deadbeef": {
        "code": "0x6001600052600060006000600160006000f0600160005260086000a000",
        "nonce": "0x0",
        "balance": "0x0"
      }
    },
    "config": {
      "ethash": {},
      "chainId": 1,
      "homesteadBlock": 0,
      "eip150Block": 0,
      "eip155Block": 0,
      "eip158Block": 0,
      "byzantiumBlock": 0,
      "constantinopleBlock": 0,
      "petersburgBlock": 0,
      "istanbulBlock": 0,
      "berlinBlock": 0,
      "londonBlock": 0,
      "shanghaiTime": 0,
      "cancunTime": 0
    },
    "number": 0,
    "gasLimit": 10000000,
    "gasUsed": 0,
    "timestamp": 0,
    "difficulty": 1
  },
  "input": "0xf8608001830186a09400000000000000000000000000000000deadbeef808026a0cff9a7eec908ed11af88bba69dfb2a354d80810a7879d33164e11b76f759908ea07024b99051fa14c1c927bc4a209362a9d54009b322e02e2e2e9140d8d56f9e28",
  "tracerConfig": null,
  "result": {
    "block_number": 1,
    "tx_hash": "0x42a73aa7bfe13f167e76e4dffe0857fb3be612509915924a0c7fda180004c54e",
    "gas_used": 23480,
    "effective_price": 0,
    "is_success": true,
    "trace": []
  }
} 